{
	"data": {
		"bytecode": {
			"linkReferences": {},
			"object": "608060405260646000557fffffffffffffffffffffffffffffffffffffffffffffffffffffffffffffff9c60015560ff600260006101000a81548160ff021916908360ff1602179055506000600260016101000a81548160ff0219169083151502179055506040518060400160405280600781526020017f7966636f6465720000000000000000000000000000000000000000000000000081525060039080519060200190620000b192919062000292565b506040518060400160405280600881526020017f68656c6c6f2e2e2e00000000000000000000000000000000000000000000000081525060049080519060200190620000ff92919062000323565b5073190d407b883997bef77efbbe66f8950e716079bc600560006101000a81548173ffffffffffffffffffffffffffffffffffffffff021916908373ffffffffffffffffffffffffffffffffffffffff160217905550603760065560405180604001604052806040518060400160405280600781526020017f7966636f646572000000000000000000000000000000000000000000000000008152508152602001601c60ff1681525060076000820151816000019080519060200190620001c892919062000323565b5060208201518160010160006101000a81548160ff021916908360ff160217905550505060405180604001604052806040518060400160405280600381526020017f44756f00000000000000000000000000000000000000000000000000000000008152508152602001601a60ff16815250600960008201518160000190805190602001906200025a92919062000323565b5060208201518160010160006101000a81548160ff021916908360ff16021790555050503480156200028b57600080fd5b5062000438565b828054620002a09062000402565b90600052602060002090601f016020900481019282620002c4576000855562000310565b82601f10620002df57805160ff191683800117855562000310565b8280016001018555821562000310579182015b828111156200030f578251825591602001919060010190620002f2565b5b5090506200031f9190620003b4565b5090565b828054620003319062000402565b90600052602060002090601f016020900481019282620003555760008555620003a1565b82601f106200037057805160ff1916838001178555620003a1565b82800160010185558215620003a1579182015b82811115620003a057825182559160200191906001019062000383565b5b509050620003b09190620003b4565b5090565b5b80821115620003cf576000816000905550600101620003b5565b5090565b7f4e487b7100000000000000000000000000000000000000000000000000000000600052602260045260246000fd5b600060028204905060018216806200041b57607f821691505b60208210811415620004325762000431620003d3565b5b50919050565b6106bf80620004486000396000f3fe608060405234801561001057600080fd5b506004361061004c5760003560e01c80632e64cec11461005157806357322f091461006f5780636057361d1461008b5780639e7a13ad146100a7575b600080fd5b6100596100d8565b60405161006691906102fe565b60405180910390f35b610089600480360381019061008491906104ac565b6100e2565b005b6100a560048036038101906100a09190610534565b61016f565b005b6100c160048036038101906100bc9190610534565b610179565b6040516100cf9291906105f8565b60405180910390f35b6000600654905090565b600060405180604001604052808481526020018360ff168152509050600b8190806001815401808255809150506001900390600052602060002090600202016000909190919091506000820151816000019080519060200190610146929190610242565b5060208201518160010160006101000a81548160ff021916908360ff1602179055505050505050565b8060068190555050565b600b818154811061018957600080fd5b90600052602060002090600202016000915090508060000180546101ac90610657565b80601f01602080910402602001604051908101604052809291908181526020018280546101d890610657565b80156102255780601f106101fa57610100808354040283529160200191610225565b820191906000526020600020905b81548152906001019060200180831161020857829003601f168201915b5050505050908060010160009054906101000a900460ff16905082565b82805461024e90610657565b90600052602060002090601f01602090048101928261027057600085556102b7565b82601f1061028957805160ff19168380011785556102b7565b828001600101855582156102b7579182015b828111156102b657825182559160200191906001019061029b565b5b5090506102c491906102c8565b5090565b5b808211156102e15760008160009055506001016102c9565b5090565b6000819050919050565b6102f8816102e5565b82525050565b600060208201905061031360008301846102ef565b92915050565b6000604051905090565b600080fd5b600080fd5b600080fd5b600080fd5b6000601f19601f8301169050919050565b7f4e487b7100000000000000000000000000000000000000000000000000000000600052604160045260246000fd5b61038082610337565b810181811067ffffffffffffffff8211171561039f5761039e610348565b5b80604052505050565b60006103b2610319565b90506103be8282610377565b919050565b600067ffffffffffffffff8211156103de576103dd610348565b5b6103e782610337565b9050602081019050919050565b82818337600083830152505050565b6000610416610411846103c3565b6103a8565b90508281526020810184848401111561043257610431610332565b5b61043d8482856103f4565b509392505050565b600082601f83011261045a5761045961032d565b5b813561046a848260208601610403565b91505092915050565b600060ff82169050919050565b61048981610473565b811461049457600080fd5b50565b6000813590506104a681610480565b92915050565b600080604083850312156104c3576104c2610323565b5b600083013567ffffffffffffffff8111156104e1576104e0610328565b5b6104ed85828601610445565b92505060206104fe85828601610497565b9150509250929050565b610511816102e5565b811461051c57600080fd5b50565b60008135905061052e81610508565b92915050565b60006020828403121561054a57610549610323565b5b60006105588482850161051f565b91505092915050565b600081519050919050565b600082825260208201905092915050565b60005b8381101561059b578082015181840152602081019050610580565b838111156105aa576000848401525b50505050565b60006105bb82610561565b6105c5818561056c565b93506105d581856020860161057d565b6105de81610337565b840191505092915050565b6105f281610473565b82525050565b6000604082019050818103600083015261061281856105b0565b905061062160208301846105e9565b9392505050565b7f4e487b7100000000000000000000000000000000000000000000000000000000600052602260045260246000fd5b6000600282049050600182168061066f57607f821691505b6020821081141561068357610682610628565b5b5091905056fea2646970667358221220c29dcf3928f31b574377d280c147e561dcac935d78063276fdddd7acb9a9b6ea64736f6c63430008080033",
			"opcodes": "PUSH1 0x80 PUSH1 0x40 MSTORE PUSH1 0x64 PUSH1 0x0 SSTORE PUSH32 0xFFFFFFFFFFFFFFFFFFFFFFFFFFFFFFFFFFFFFFFFFFFFFFFFFFFFFFFFFFFFFF9C PUSH1 0x1 SSTORE PUSH1 0xFF PUSH1 0x2 PUSH1 0x0 PUSH2 0x100 EXP DUP2 SLOAD DUP2 PUSH1 0xFF MUL NOT AND SWAP1 DUP4 PUSH1 0xFF AND MUL OR SWAP1 SSTORE POP PUSH1 0x0 PUSH1 0x2 PUSH1 0x1 PUSH2 0x100 EXP DUP2 SLOAD DUP2 PUSH1 0xFF MUL NOT AND SWAP1 DUP4 ISZERO ISZERO MUL OR SWAP1 SSTORE POP PUSH1 0x40 MLOAD DUP1 PUSH1 0x40 ADD PUSH1 0x40 MSTORE DUP1 PUSH1 0x7 DUP2 MSTORE PUSH1 0x20 ADD PUSH32 0x7966636F64657200000000000000000000000000000000000000000000000000 DUP2 MSTORE POP PUSH1 0x3 SWAP1 DUP1 MLOAD SWAP1 PUSH1 0x20 ADD SWAP1 PUSH3 0xB1 SWAP3 SWAP2 SWAP1 PUSH3 0x292 JUMP JUMPDEST POP PUSH1 0x40 MLOAD DUP1 PUSH1 0x40 ADD PUSH1 0x40 MSTORE DUP1 PUSH1 0x8 DUP2 MSTORE PUSH1 0x20 ADD PUSH32 0x68656C6C6F2E2E2E000000000000000000000000000000000000000000000000 DUP2 MSTORE POP PUSH1 0x4 SWAP1 DUP1 MLOAD SWAP1 PUSH1 0x20 ADD SWAP1 PUSH3 0xFF SWAP3 SWAP2 SWAP1 PUSH3 0x323 JUMP JUMPDEST POP PUSH20 0x190D407B883997BEF77EFBBE66F8950E716079BC PUSH1 0x5 PUSH1 0x0 PUSH2 0x100 EXP DUP2 SLOAD DUP2 PUSH20 0xFFFFFFFFFFFFFFFFFFFFFFFFFFFFFFFFFFFFFFFF MUL NOT AND SWAP1 DUP4 PUSH20 0xFFFFFFFFFFFFFFFFFFFFFFFFFFFFFFFFFFFFFFFF AND MUL OR SWAP1 SSTORE POP PUSH1 0x37 PUSH1 0x6 SSTORE PUSH1 0x40 MLOAD DUP1 PUSH1 0x40 ADD PUSH1 0x40 MSTORE DUP1 PUSH1 0x40 MLOAD DUP1 PUSH1 0x40 ADD PUSH1 0x40 MSTORE DUP1 PUSH1 0x7 DUP2 MSTORE PUSH1 0x20 ADD PUSH32 0x7966636F64657200000000000000000000000000000000000000000000000000 DUP2 MSTORE POP DUP2 MSTORE PUSH1 0x20 ADD PUSH1 0x1C PUSH1 0xFF AND DUP2 MSTORE POP PUSH1 0x7 PUSH1 0x0 DUP3 ADD MLOAD DUP2 PUSH1 0x0 ADD SWAP1 DUP1 MLOAD SWAP1 PUSH1 0x20 ADD SWAP1 PUSH3 0x1C8 SWAP3 SWAP2 SWAP1 PUSH3 0x323 JUMP JUMPDEST POP PUSH1 0x20 DUP3 ADD MLOAD DUP2 PUSH1 0x1 ADD PUSH1 0x0 PUSH2 0x100 EXP DUP2 SLOAD DUP2 PUSH1 0xFF MUL NOT AND SWAP1 DUP4 PUSH1 0xFF AND MUL OR SWAP1 SSTORE POP POP POP PUSH1 0x40 MLOAD DUP1 PUSH1 0x40 ADD PUSH1 0x40 MSTORE DUP1 PUSH1 0x40 MLOAD DUP1 PUSH1 0x40 ADD PUSH1 0x40 MSTORE DUP1 PUSH1 0x3 DUP2 MSTORE PUSH1 0x20 ADD PUSH32 0x44756F0000000000000000000000000000000000000000000000000000000000 DUP2 MSTORE POP DUP2 MSTORE PUSH1 0x20 ADD PUSH1 0x1A PUSH1 0xFF AND DUP2 MSTORE POP PUSH1 0x9 PUSH1 0x0 DUP3 ADD MLOAD DUP2 PUSH1 0x0 ADD SWAP1 DUP1 MLOAD SWAP1 PUSH1 0x20 ADD SWAP1 PUSH3 0x25A SWAP3 SWAP2 SWAP1 PUSH3 0x323 JUMP JUMPDEST POP PUSH1 0x20 DUP3 ADD MLOAD DUP2 PUSH1 0x1 ADD PUSH1 0x0 PUSH2 0x100 EXP DUP2 SLOAD DUP2 PUSH1 0xFF MUL NOT AND SWAP1 DUP4 PUSH1 0xFF AND MUL OR SWAP1 SSTORE POP POP POP CALLVALUE DUP1 ISZERO PUSH3 0x28B JUMPI PUSH1 0x0 DUP1 REVERT JUMPDEST POP PUSH3 0x438 JUMP JUMPDEST DUP3 DUP1 SLOAD PUSH3 0x2A0 SWAP1 PUSH3 0x402 JUMP JUMPDEST SWAP1 PUSH1 0x0 MSTORE PUSH1 0x20 PUSH1 0x0 KECCAK256 SWAP1 PUSH1 0x1F ADD PUSH1 0x20 SWAP1 DIV DUP2 ADD SWAP3 DUP3 PUSH3 0x2C4 JUMPI PUSH1 0x0 DUP6 SSTORE PUSH3 0x310 JUMP JUMPDEST DUP3 PUSH1 0x1F LT PUSH3 0x2DF JUMPI DUP1 MLOAD PUSH1 0xFF NOT AND DUP4 DUP1 ADD OR DUP6 SSTORE PUSH3 0x310 JUMP JUMPDEST DUP3 DUP1 ADD PUSH1 0x1 ADD DUP6 SSTORE DUP3 ISZERO PUSH3 0x310 JUMPI SWAP2 DUP3 ADD JUMPDEST DUP3 DUP2 GT ISZERO PUSH3 0x30F JUMPI DUP3 MLOAD DUP3 SSTORE SWAP2 PUSH1 0x20 ADD SWAP2 SWAP1 PUSH1 0x1 ADD SWAP1 PUSH3 0x2F2 JUMP JUMPDEST JUMPDEST POP SWAP1 POP PUSH3 0x31F SWAP2 SWAP1 PUSH3 0x3B4 JUMP JUMPDEST POP SWAP1 JUMP JUMPDEST DUP3 DUP1 SLOAD PUSH3 0x331 SWAP1 PUSH3 0x402 JUMP JUMPDEST SWAP1 PUSH1 0x0 MSTORE PUSH1 0x20 PUSH1 0x0 KECCAK256 SWAP1 PUSH1 0x1F ADD PUSH1 0x20 SWAP1 DIV DUP2 ADD SWAP3 DUP3 PUSH3 0x355 JUMPI PUSH1 0x0 DUP6 SSTORE PUSH3 0x3A1 JUMP JUMPDEST DUP3 PUSH1 0x1F LT PUSH3 0x370 JUMPI DUP1 MLOAD PUSH1 0xFF NOT AND DUP4 DUP1 ADD OR DUP6 SSTORE PUSH3 0x3A1 JUMP JUMPDEST DUP3 DUP1 ADD PUSH1 0x1 ADD DUP6 SSTORE DUP3 ISZERO PUSH3 0x3A1 JUMPI SWAP2 DUP3 ADD JUMPDEST DUP3 DUP2 GT ISZERO PUSH3 0x3A0 JUMPI DUP3 MLOAD DUP3 SSTORE SWAP2 PUSH1 0x20 ADD SWAP2 SWAP1 PUSH1 0x1 ADD SWAP1 PUSH3 0x383 JUMP JUMPDEST JUMPDEST POP SWAP1 POP PUSH3 0x3B0 SWAP2 SWAP1 PUSH3 0x3B4 JUMP JUMPDEST POP SWAP1 JUMP JUMPDEST JUMPDEST DUP1 DUP3 GT ISZERO PUSH3 0x3CF JUMPI PUSH1 0x0 DUP2 PUSH1 0x0 SWAP1 SSTORE POP PUSH1 0x1 ADD PUSH3 0x3B5 JUMP JUMPDEST POP SWAP1 JUMP JUMPDEST PUSH32 0x4E487B7100000000000000000000000000000000000000000000000000000000 PUSH1 0x0 MSTORE PUSH1 0x22 PUSH1 0x4 MSTORE PUSH1 0x24 PUSH1 0x0 REVERT JUMPDEST PUSH1 0x0 PUSH1 0x2 DUP3 DIV SWAP1 POP PUSH1 0x1 DUP3 AND DUP1 PUSH3 0x41B JUMPI PUSH1 0x7F DUP3 AND SWAP2 POP JUMPDEST PUSH1 0x20 DUP3 LT DUP2 EQ ISZERO PUSH3 0x432 JUMPI PUSH3 0x431 PUSH3 0x3D3 JUMP JUMPDEST JUMPDEST POP SWAP2 SWAP1 POP JUMP JUMPDEST PUSH2 0x6BF DUP1 PUSH3 0x448 PUSH1 0x0 CODECOPY PUSH1 0x0 RETURN INVALID PUSH1 0x80 PUSH1 0x40 MSTORE CALLVALUE DUP1 ISZERO PUSH2 0x10 JUMPI PUSH1 0x0 DUP1 REVERT JUMPDEST POP PUSH1 0x4 CALLDATASIZE LT PUSH2 0x4C JUMPI PUSH1 0x0 CALLDATALOAD PUSH1 0xE0 SHR DUP1 PUSH4 0x2E64CEC1 EQ PUSH2 0x51 JUMPI DUP1 PUSH4 0x57322F09 EQ PUSH2 0x6F JUMPI DUP1 PUSH4 0x6057361D EQ PUSH2 0x8B JUMPI DUP1 PUSH4 0x9E7A13AD EQ PUSH2 0xA7 JUMPI JUMPDEST PUSH1 0x0 DUP1 REVERT JUMPDEST PUSH2 0x59 PUSH2 0xD8 JUMP JUMPDEST PUSH1 0x40 MLOAD PUSH2 0x66 SWAP2 SWAP1 PUSH2 0x2FE JUMP JUMPDEST PUSH1 0x40 MLOAD DUP1 SWAP2 SUB SWAP1 RETURN JUMPDEST PUSH2 0x89 PUSH1 0x4 DUP1 CALLDATASIZE SUB DUP2 ADD SWAP1 PUSH2 0x84 SWAP2 SWAP1 PUSH2 0x4AC JUMP JUMPDEST PUSH2 0xE2 JUMP JUMPDEST STOP JUMPDEST PUSH2 0xA5 PUSH1 0x4 DUP1 CALLDATASIZE SUB DUP2 ADD SWAP1 PUSH2 0xA0 SWAP2 SWAP1 PUSH2 0x534 JUMP JUMPDEST PUSH2 0x16F JUMP JUMPDEST STOP JUMPDEST PUSH2 0xC1 PUSH1 0x4 DUP1 CALLDATASIZE SUB DUP2 ADD SWAP1 PUSH2 0xBC SWAP2 SWAP1 PUSH2 0x534 JUMP JUMPDEST PUSH2 0x179 JUMP JUMPDEST PUSH1 0x40 MLOAD PUSH2 0xCF SWAP3 SWAP2 SWAP1 PUSH2 0x5F8 JUMP JUMPDEST PUSH1 0x40 MLOAD DUP1 SWAP2 SUB SWAP1 RETURN JUMPDEST PUSH1 0x0 PUSH1 0x6 SLOAD SWAP1 POP SWAP1 JUMP JUMPDEST PUSH1 0x0 PUSH1 0x40 MLOAD DUP1 PUSH1 0x40 ADD PUSH1 0x40 MSTORE DUP1 DUP5 DUP2 MSTORE PUSH1 0x20 ADD DUP4 PUSH1 0xFF AND DUP2 MSTORE POP SWAP1 POP PUSH1 0xB DUP2 SWAP1 DUP1 PUSH1 0x1 DUP2 SLOAD ADD DUP1 DUP3 SSTORE DUP1 SWAP2 POP POP PUSH1 0x1 SWAP1 SUB SWAP1 PUSH1 0x0 MSTORE PUSH1 0x20 PUSH1 0x0 KECCAK256 SWAP1 PUSH1 0x2 MUL ADD PUSH1 0x0 SWAP1 SWAP2 SWAP1 SWAP2 SWAP1 SWAP2 POP PUSH1 0x0 DUP3 ADD MLOAD DUP2 PUSH1 0x0 ADD SWAP1 DUP1 MLOAD SWAP1 PUSH1 0x20 ADD SWAP1 PUSH2 0x146 SWAP3 SWAP2 SWAP1 PUSH2 0x242 JUMP JUMPDEST POP PUSH1 0x20 DUP3 ADD MLOAD DUP2 PUSH1 0x1 ADD PUSH1 0x0 PUSH2 0x100 EXP DUP2 SLOAD DUP2 PUSH1 0xFF MUL NOT AND SWAP1 DUP4 PUSH1 0xFF AND MUL OR SWAP1 SSTORE POP POP POP POP POP POP JUMP JUMPDEST DUP1 PUSH1 0x6 DUP2 SWAP1 SSTORE POP POP JUMP JUMPDEST PUSH1 0xB DUP2 DUP2 SLOAD DUP2 LT PUSH2 0x189 JUMPI PUSH1 0x0 DUP1 REVERT JUMPDEST SWAP1 PUSH1 0x0 MSTORE PUSH1 0x20 PUSH1 0x0 KECCAK256 SWAP1 PUSH1 0x2 MUL ADD PUSH1 0x0 SWAP2 POP SWAP1 POP DUP1 PUSH1 0x0 ADD DUP1 SLOAD PUSH2 0x1AC SWAP1 PUSH2 0x657 JUMP JUMPDEST DUP1 PUSH1 0x1F ADD PUSH1 0x20 DUP1 SWAP2 DIV MUL PUSH1 0x20 ADD PUSH1 0x40 MLOAD SWAP1 DUP2 ADD PUSH1 0x40 MSTORE DUP1 SWAP3 SWAP2 SWAP1 DUP2 DUP2 MSTORE PUSH1 0x20 ADD DUP3 DUP1 SLOAD PUSH2 0x1D8 SWAP1 PUSH2 0x657 JUMP JUMPDEST DUP1 ISZERO PUSH2 0x225 JUMPI DUP1 PUSH1 0x1F LT PUSH2 0x1FA JUMPI PUSH2 0x100 DUP1 DUP4 SLOAD DIV MUL DUP4 MSTORE SWAP2 PUSH1 0x20 ADD SWAP2 PUSH2 0x225 JUMP JUMPDEST DUP3 ADD SWAP2 SWAP1 PUSH1 0x0 MSTORE PUSH1 0x20 PUSH1 0x0 KECCAK256 SWAP1 JUMPDEST DUP2 SLOAD DUP2 MSTORE SWAP1 PUSH1 0x1 ADD SWAP1 PUSH1 0x20 ADD DUP1 DUP4 GT PUSH2 0x208 JUMPI DUP3 SWAP1 SUB PUSH1 0x1F AND DUP3 ADD SWAP2 JUMPDEST POP POP POP POP POP SWAP1 DUP1 PUSH1 0x1 ADD PUSH1 0x0 SWAP1 SLOAD SWAP1 PUSH2 0x100 EXP SWAP1 DIV PUSH1 0xFF AND SWAP1 POP DUP3 JUMP JUMPDEST DUP3 DUP1 SLOAD PUSH2 0x24E SWAP1 PUSH2 0x657 JUMP JUMPDEST SWAP1 PUSH1 0x0 MSTORE PUSH1 0x20 PUSH1 0x0 KECCAK256 SWAP1 PUSH1 0x1F ADD PUSH1 0x20 SWAP1 DIV DUP2 ADD SWAP3 DUP3 PUSH2 0x270 JUMPI PUSH1 0x0 DUP6 SSTORE PUSH2 0x2B7 JUMP JUMPDEST DUP3 PUSH1 0x1F LT PUSH2 0x289 JUMPI DUP1 MLOAD PUSH1 0xFF NOT AND DUP4 DUP1 ADD OR DUP6 SSTORE PUSH2 0x2B7 JUMP JUMPDEST DUP3 DUP1 ADD PUSH1 0x1 ADD DUP6 SSTORE DUP3 ISZERO PUSH2 0x2B7 JUMPI SWAP2 DUP3 ADD JUMPDEST DUP3 DUP2 GT ISZERO PUSH2 0x2B6 JUMPI DUP3 MLOAD DUP3 SSTORE SWAP2 PUSH1 0x20 ADD SWAP2 SWAP1 PUSH1 0x1 ADD SWAP1 PUSH2 0x29B JUMP JUMPDEST JUMPDEST POP SWAP1 POP PUSH2 0x2C4 SWAP2 SWAP1 PUSH2 0x2C8 JUMP JUMPDEST POP SWAP1 JUMP JUMPDEST JUMPDEST DUP1 DUP3 GT ISZERO PUSH2 0x2E1 JUMPI PUSH1 0x0 DUP2 PUSH1 0x0 SWAP1 SSTORE POP PUSH1 0x1 ADD PUSH2 0x2C9 JUMP JUMPDEST POP SWAP1 JUMP JUMPDEST PUSH1 0x0 DUP2 SWAP1 POP SWAP2 SWAP1 POP JUMP JUMPDEST PUSH2 0x2F8 DUP2 PUSH2 0x2E5 JUMP JUMPDEST DUP3 MSTORE POP POP JUMP JUMPDEST PUSH1 0x0 PUSH1 0x20 DUP3 ADD SWAP1 POP PUSH2 0x313 PUSH1 0x0 DUP4 ADD DUP5 PUSH2 0x2EF JUMP JUMPDEST SWAP3 SWAP2 POP POP JUMP JUMPDEST PUSH1 0x0 PUSH1 0x40 MLOAD SWAP1 POP SWAP1 JUMP JUMPDEST PUSH1 0x0 DUP1 REVERT JUMPDEST PUSH1 0x0 DUP1 REVERT JUMPDEST PUSH1 0x0 DUP1 REVERT JUMPDEST PUSH1 0x0 DUP1 REVERT JUMPDEST PUSH1 0x0 PUSH1 0x1F NOT PUSH1 0x1F DUP4 ADD AND SWAP1 POP SWAP2 SWAP1 POP JUMP JUMPDEST PUSH32 0x4E487B7100000000000000000000000000000000000000000000000000000000 PUSH1 0x0 MSTORE PUSH1 0x41 PUSH1 0x4 MSTORE PUSH1 0x24 PUSH1 0x0 REVERT JUMPDEST PUSH2 0x380 DUP3 PUSH2 0x337 JUMP JUMPDEST DUP2 ADD DUP2 DUP2 LT PUSH8 0xFFFFFFFFFFFFFFFF DUP3 GT OR ISZERO PUSH2 0x39F JUMPI PUSH2 0x39E PUSH2 0x348 JUMP JUMPDEST JUMPDEST DUP1 PUSH1 0x40 MSTORE POP POP POP JUMP JUMPDEST PUSH1 0x0 PUSH2 0x3B2 PUSH2 0x319 JUMP JUMPDEST SWAP1 POP PUSH2 0x3BE DUP3 DUP3 PUSH2 0x377 JUMP JUMPDEST SWAP2 SWAP1 POP JUMP JUMPDEST PUSH1 0x0 PUSH8 0xFFFFFFFFFFFFFFFF DUP3 GT ISZERO PUSH2 0x3DE JUMPI PUSH2 0x3DD PUSH2 0x348 JUMP JUMPDEST JUMPDEST PUSH2 0x3E7 DUP3 PUSH2 0x337 JUMP JUMPDEST SWAP1 POP PUSH1 0x20 DUP2 ADD SWAP1 POP SWAP2 SWAP1 POP JUMP JUMPDEST DUP3 DUP2 DUP4 CALLDATACOPY PUSH1 0x0 DUP4 DUP4 ADD MSTORE POP POP POP JUMP JUMPDEST PUSH1 0x0 PUSH2 0x416 PUSH2 0x411 DUP5 PUSH2 0x3C3 JUMP JUMPDEST PUSH2 0x3A8 JUMP JUMPDEST SWAP1 POP DUP3 DUP2 MSTORE PUSH1 0x20 DUP2 ADD DUP5 DUP5 DUP5 ADD GT ISZERO PUSH2 0x432 JUMPI PUSH2 0x431 PUSH2 0x332 JUMP JUMPDEST JUMPDEST PUSH2 0x43D DUP5 DUP3 DUP6 PUSH2 0x3F4 JUMP JUMPDEST POP SWAP4 SWAP3 POP POP POP JUMP JUMPDEST PUSH1 0x0 DUP3 PUSH1 0x1F DUP4 ADD SLT PUSH2 0x45A JUMPI PUSH2 0x459 PUSH2 0x32D JUMP JUMPDEST JUMPDEST DUP2 CALLDATALOAD PUSH2 0x46A DUP5 DUP3 PUSH1 0x20 DUP7 ADD PUSH2 0x403 JUMP JUMPDEST SWAP2 POP POP SWAP3 SWAP2 POP POP JUMP JUMPDEST PUSH1 0x0 PUSH1 0xFF DUP3 AND SWAP1 POP SWAP2 SWAP1 POP JUMP JUMPDEST PUSH2 0x489 DUP2 PUSH2 0x473 JUMP JUMPDEST DUP2 EQ PUSH2 0x494 JUMPI PUSH1 0x0 DUP1 REVERT JUMPDEST POP JUMP JUMPDEST PUSH1 0x0 DUP2 CALLDATALOAD SWAP1 POP PUSH2 0x4A6 DUP2 PUSH2 0x480 JUMP JUMPDEST SWAP3 SWAP2 POP POP JUMP JUMPDEST PUSH1 0x0 DUP1 PUSH1 0x40 DUP4 DUP6 SUB SLT ISZERO PUSH2 0x4C3 JUMPI PUSH2 0x4C2 PUSH2 0x323 JUMP JUMPDEST JUMPDEST PUSH1 0x0 DUP4 ADD CALLDATALOAD PUSH8 0xFFFFFFFFFFFFFFFF DUP2 GT ISZERO PUSH2 0x4E1 JUMPI PUSH2 0x4E0 PUSH2 0x328 JUMP JUMPDEST JUMPDEST PUSH2 0x4ED DUP6 DUP3 DUP7 ADD PUSH2 0x445 JUMP JUMPDEST SWAP3 POP POP PUSH1 0x20 PUSH2 0x4FE DUP6 DUP3 DUP7 ADD PUSH2 0x497 JUMP JUMPDEST SWAP2 POP POP SWAP3 POP SWAP3 SWAP1 POP JUMP JUMPDEST PUSH2 0x511 DUP2 PUSH2 0x2E5 JUMP JUMPDEST DUP2 EQ PUSH2 0x51C JUMPI PUSH1 0x0 DUP1 REVERT JUMPDEST POP JUMP JUMPDEST PUSH1 0x0 DUP2 CALLDATALOAD SWAP1 POP PUSH2 0x52E DUP2 PUSH2 0x508 JUMP JUMPDEST SWAP3 SWAP2 POP POP JUMP JUMPDEST PUSH1 0x0 PUSH1 0x20 DUP3 DUP5 SUB SLT ISZERO PUSH2 0x54A JUMPI PUSH2 0x549 PUSH2 0x323 JUMP JUMPDEST JUMPDEST PUSH1 0x0 PUSH2 0x558 DUP5 DUP3 DUP6 ADD PUSH2 0x51F JUMP JUMPDEST SWAP2 POP POP SWAP3 SWAP2 POP POP JUMP JUMPDEST PUSH1 0x0 DUP2 MLOAD SWAP1 POP SWAP2 SWAP1 POP JUMP JUMPDEST PUSH1 0x0 DUP3 DUP3 MSTORE PUSH1 0x20 DUP3 ADD SWAP1 POP SWAP3 SWAP2 POP POP JUMP JUMPDEST PUSH1 0x0 JUMPDEST DUP4 DUP2 LT ISZERO PUSH2 0x59B JUMPI DUP1 DUP3 ADD MLOAD DUP2 DUP5 ADD MSTORE PUSH1 0x20 DUP2 ADD SWAP1 POP PUSH2 0x580 JUMP JUMPDEST DUP4 DUP2 GT ISZERO PUSH2 0x5AA JUMPI PUSH1 0x0 DUP5 DUP5 ADD MSTORE JUMPDEST POP POP POP POP JUMP JUMPDEST PUSH1 0x0 PUSH2 0x5BB DUP3 PUSH2 0x561 JUMP JUMPDEST PUSH2 0x5C5 DUP2 DUP6 PUSH2 0x56C JUMP JUMPDEST SWAP4 POP PUSH2 0x5D5 DUP2 DUP6 PUSH1 0x20 DUP7 ADD PUSH2 0x57D JUMP JUMPDEST PUSH2 0x5DE DUP2 PUSH2 0x337 JUMP JUMPDEST DUP5 ADD SWAP2 POP POP SWAP3 SWAP2 POP POP JUMP JUMPDEST PUSH2 0x5F2 DUP2 PUSH2 0x473 JUMP JUMPDEST DUP3 MSTORE POP POP JUMP JUMPDEST PUSH1 0x0 PUSH1 0x40 DUP3 ADD SWAP1 POP DUP2 DUP2 SUB PUSH1 0x0 DUP4 ADD MSTORE PUSH2 0x612 DUP2 DUP6 PUSH2 0x5B0 JUMP JUMPDEST SWAP1 POP PUSH2 0x621 PUSH1 0x20 DUP4 ADD DUP5 PUSH2 0x5E9 JUMP JUMPDEST SWAP4 SWAP3 POP POP POP JUMP JUMPDEST PUSH32 0x4E487B7100000000000000000000000000000000000000000000000000000000 PUSH1 0x0 MSTORE PUSH1 0x22 PUSH1 0x4 MSTORE PUSH1 0x24 PUSH1 0x0 REVERT JUMPDEST PUSH1 0x0 PUSH1 0x2 DUP3 DIV SWAP1 POP PUSH1 0x1 DUP3 AND DUP1 PUSH2 0x66F JUMPI PUSH1 0x7F DUP3 AND SWAP2 POP JUMPDEST PUSH1 0x20 DUP3 LT DUP2 EQ ISZERO PUSH2 0x683 JUMPI PUSH2 0x682 PUSH2 0x628 JUMP JUMPDEST JUMPDEST POP SWAP2 SWAP1 POP JUMP INVALID LOG2 PUSH5 0x6970667358 0x22 SLT KECCAK256 0xC2 SWAP14 0xCF CODECOPY 0x28 RETURN SHL JUMPI NUMBER PUSH24 0xD280C147E561DCAC935D78063276FDDDD7ACB9A9B6EA6473 PUSH16 0x6C634300080800330000000000000000 "
		},
		"gasEstimates": {
			"creation": {
				"codeDepositCost": "345400",
				"executionCost": "infinite",
				"totalCost": "infinite"
			},
			"external": {
				"addPerson(string,uint8)": "infinite",
				"people(uint256)": "infinite",
				"retrieve()": "2415",
				"store(uint256)": "22542"
			}
		},
		"methodIdentifiers": {
			"addPerson(string,uint8)": "57322f09",
			"people(uint256)": "9e7a13ad",
			"retrieve()": "2e64cec1",
			"store(uint256)": "6057361d"
		}
	},
	"abi": [
		{
			"inputs": [
				{
					"internalType": "string",
					"name": "_name",
					"type": "string"
				},
				{
					"internalType": "uint8",
					"name": "_age",
					"type": "uint8"
				}
			],
			"name": "addPerson",
			"outputs": [],
			"stateMutability": "nonpayable",
			"type": "function"
		},
		{
			"inputs": [
				{
					"internalType": "uint256",
					"name": "",
					"type": "uint256"
				}
			],
			"name": "people",
			"outputs": [
				{
					"internalType": "string",
					"name": "name",
					"type": "string"
				},
				{
					"internalType": "uint8",
					"name": "age",
					"type": "uint8"
				}
			],
			"stateMutability": "view",
			"type": "function"
		},
		{
			"inputs": [],
			"name": "retrieve",
			"outputs": [
				{
					"internalType": "uint256",
					"name": "",
					"type": "uint256"
				}
			],
			"stateMutability": "view",
			"type": "function"
		},
		{
			"inputs": [
				{
					"internalType": "uint256",
					"name": "num",
					"type": "uint256"
				}
			],
			"name": "store",
			"outputs": [],
			"stateMutability": "nonpayable",
			"type": "function"
		}
	]
}